{
  "contractName": "BidEther",
  "abi": [
    {
      "inputs": [],
      "stateMutability": "nonpayable",
      "type": "constructor"
    },
    {
      "inputs": [],
      "name": "auctionItem",
      "outputs": [
        {
          "internalType": "string",
          "name": "",
          "type": "string"
        }
      ],
      "stateMutability": "view",
      "type": "function",
      "constant": true
    },
    {
      "inputs": [],
      "name": "auctioner",
      "outputs": [
        {
          "internalType": "address",
          "name": "",
          "type": "address"
        }
      ],
      "stateMutability": "view",
      "type": "function",
      "constant": true
    },
    {
      "inputs": [
        {
          "internalType": "address",
          "name": "",
          "type": "address"
        }
      ],
      "name": "bidderAccountFlag",
      "outputs": [
        {
          "internalType": "bool",
          "name": "",
          "type": "bool"
        }
      ],
      "stateMutability": "view",
      "type": "function",
      "constant": true
    },
    {
      "inputs": [
        {
          "internalType": "uint256",
          "name": "",
          "type": "uint256"
        }
      ],
      "name": "bidderAccounts",
      "outputs": [
        {
          "internalType": "address",
          "name": "",
          "type": "address"
        }
      ],
      "stateMutability": "view",
      "type": "function",
      "constant": true
    },
    {
      "inputs": [
        {
          "internalType": "address",
          "name": "",
          "type": "address"
        }
      ],
      "name": "bidders",
      "outputs": [
        {
          "internalType": "uint256",
          "name": "",
          "type": "uint256"
        }
      ],
      "stateMutability": "view",
      "type": "function",
      "constant": true
    },
    {
      "inputs": [],
      "name": "highestBidAmount",
      "outputs": [
        {
          "internalType": "uint256",
          "name": "",
          "type": "uint256"
        }
      ],
      "stateMutability": "view",
      "type": "function",
      "constant": true
    },
    {
      "inputs": [],
      "name": "statusOfItem",
      "outputs": [
        {
          "internalType": "bool",
          "name": "",
          "type": "bool"
        }
      ],
      "stateMutability": "view",
      "type": "function",
      "constant": true
    },
    {
      "inputs": [],
      "name": "statusofItem",
      "outputs": [
        {
          "internalType": "bool",
          "name": "",
          "type": "bool"
        }
      ],
      "stateMutability": "view",
      "type": "function",
      "constant": true
    },
    {
      "inputs": [],
      "name": "sellBid",
      "outputs": [],
      "stateMutability": "nonpayable",
      "type": "function"
    },
    {
      "inputs": [],
      "name": "Bid",
      "outputs": [],
      "stateMutability": "payable",
      "type": "function",
      "payable": true
    },
    {
      "inputs": [],
      "name": "auctionerAdd",
      "outputs": [
        {
          "internalType": "address",
          "name": "",
          "type": "address"
        }
      ],
      "stateMutability": "view",
      "type": "function",
      "constant": true
    },
    {
      "inputs": [
        {
          "internalType": "address",
          "name": "receiverAdd",
          "type": "address"
        }
      ],
      "name": "YourBid",
      "outputs": [
        {
          "internalType": "uint256",
          "name": "",
          "type": "uint256"
        }
      ],
      "stateMutability": "view",
      "type": "function",
      "constant": true
    },
    {
      "inputs": [],
      "name": "auctionItemfun",
      "outputs": [
        {
          "internalType": "string",
          "name": "",
          "type": "string"
        }
      ],
      "stateMutability": "view",
      "type": "function",
      "constant": true
    },
    {
      "inputs": [],
      "name": "checkHighestAmount",
      "outputs": [
        {
          "internalType": "uint256",
          "name": "",
          "type": "uint256"
        }
      ],
      "stateMutability": "view",
      "type": "function",
      "constant": true
    },
    {
      "inputs": [
        {
          "internalType": "address payable",
          "name": "receiver",
          "type": "address"
        }
      ],
      "name": "withDraw",
      "outputs": [],
      "stateMutability": "nonpayable",
      "type": "function"
    }
  ],
  "bytecode": "0x60806040526000600660006101000a81548160ff0219169083151502179055503480156200002c57600080fd5b5033600160006101000a81548173ffffffffffffffffffffffffffffffffffffffff021916908373ffffffffffffffffffffffffffffffffffffffff1602179055506040518060400160405280601281526020017f4b756e616c27732044534120436f75727365000000000000000000000000000081525060029080519060200190620000bb929190620000c2565b50620001d7565b828054620000d090620001a1565b90600052602060002090601f016020900481019282620000f4576000855562000140565b82601f106200010f57805160ff191683800117855562000140565b8280016001018555821562000140579182015b828111156200013f57825182559160200191906001019062000122565b5b5090506200014f919062000153565b5090565b5b808211156200016e57600081600090555060010162000154565b5090565b7f4e487b7100000000000000000000000000000000000000000000000000000000600052602260045260246000fd5b60006002820490506001821680620001ba57607f821691505b60208210811415620001d157620001d062000172565b5b50919050565b61143c80620001e76000396000f3fe6080604052600436106100e85760003560e01c8063aabc20041161008a578063d3dde33411610059578063d3dde334146102d9578063f3fb05df14610304578063fcc8f7931461032f578063ff189c9e1461036c576100e8565b8063aabc20041461021b578063b6799f3814610246578063b8d44eb114610283578063c2c042ca146102ae576100e8565b80636e6452cb116100c65780636e6452cb1461017e57806377d335ff146101885780638f9b4874146101b3578063a47901f8146101de576100e8565b80630a67d2c7146100ed5780634bfe051c146101165780635032a6af14610141575b600080fd5b3480156100f957600080fd5b50610114600480360381019061010f9190610e92565b610383565b005b34801561012257600080fd5b5061012b610536565b6040516101389190610ed8565b60405180910390f35b34801561014d57600080fd5b5061016860048036038101906101639190610f1f565b61066c565b6040516101759190610f6d565b60405180910390f35b6101866106ab565b005b34801561019457600080fd5b5061019d610896565b6040516101aa9190610fa3565b60405180910390f35b3480156101bf57600080fd5b506101c86108a9565b6040516101d59190610ed8565b60405180910390f35b3480156101ea57600080fd5b5061020560048036038101906102009190610fea565b6108af565b6040516102129190610ed8565b60405180910390f35b34801561022757600080fd5b506102306108f7565b60405161023d91906110b0565b60405180910390f35b34801561025257600080fd5b5061026d60048036038101906102689190610fea565b610989565b60405161027a9190610fa3565b60405180910390f35b34801561028f57600080fd5b506102986109a9565b6040516102a59190610f6d565b60405180910390f35b3480156102ba57600080fd5b506102c36109d3565b6040516102d091906110b0565b60405180910390f35b3480156102e557600080fd5b506102ee610a61565b6040516102fb9190610fa3565b60405180910390f35b34801561031057600080fd5b50610319610a78565b6040516103269190610f6d565b60405180910390f35b34801561033b57600080fd5b5061035660048036038101906103519190610fea565b610a9e565b6040516103639190610ed8565b60405180910390f35b34801561037857600080fd5b50610381610ab6565b005b60008060003373ffffffffffffffffffffffffffffffffffffffff1673ffffffffffffffffffffffffffffffffffffffff1681526020019081526020016000205411610404576040517f08c379a00000000000000000000000000000000000000000000000000000000081526004016103fb90611144565b60405180910390fd5b60008173ffffffffffffffffffffffffffffffffffffffff166000808473ffffffffffffffffffffffffffffffffffffffff1673ffffffffffffffffffffffffffffffffffffffff1681526020019081526020016000205460405161046890611195565b60006040518083038185875af1925050503d80600081146104a5576040519150601f19603f3d011682016040523d82523d6000602084013e6104aa565b606091505b50509050806104ee576040517f08c379a00000000000000000000000000000000000000000000000000000000081526004016104e5906111f6565b60405180910390fd5b60008060003373ffffffffffffffffffffffffffffffffffffffff1673ffffffffffffffffffffffffffffffffffffffff168152602001908152602001600020819055505050565b6000806000905060005b600580549050811015610664576000806005838154811061056457610563611216565b5b9060005260206000200160009054906101000a900473ffffffffffffffffffffffffffffffffffffffff1673ffffffffffffffffffffffffffffffffffffffff1673ffffffffffffffffffffffffffffffffffffffff1681526020019081526020016000205482101561065157600080600583815481106105e8576105e7611216565b5b9060005260206000200160009054906101000a900473ffffffffffffffffffffffffffffffffffffffff1673ffffffffffffffffffffffffffffffffffffffff1673ffffffffffffffffffffffffffffffffffffffff1681526020019081526020016000205491505b808061065c90611274565b915050610540565b508091505090565b6005818154811061067c57600080fd5b906000526020600020016000915054906101000a900473ffffffffffffffffffffffffffffffffffffffff1681565b60011515600460003373ffffffffffffffffffffffffffffffffffffffff1673ffffffffffffffffffffffffffffffffffffffff16815260200190815260200160002060009054906101000a900460ff161515141561079557346000803373ffffffffffffffffffffffffffffffffffffffff1673ffffffffffffffffffffffffffffffffffffffff1681526020019081526020016000205461074e91906112bd565b6000803373ffffffffffffffffffffffffffffffffffffffff1673ffffffffffffffffffffffffffffffffffffffff16815260200190815260200160002081905550610894565b6001600460003373ffffffffffffffffffffffffffffffffffffffff1673ffffffffffffffffffffffffffffffffffffffff16815260200190815260200160002060006101000a81548160ff021916908315150217905550346000803373ffffffffffffffffffffffffffffffffffffffff1673ffffffffffffffffffffffffffffffffffffffff168152602001908152602001600020819055506005339080600181540180825580915050600190039060005260206000200160009091909190916101000a81548173ffffffffffffffffffffffffffffffffffffffff021916908373ffffffffffffffffffffffffffffffffffffffff1602179055505b565b600660009054906101000a900460ff1681565b60035481565b60008060008373ffffffffffffffffffffffffffffffffffffffff1673ffffffffffffffffffffffffffffffffffffffff168152602001908152602001600020549050919050565b60606002805461090690611342565b80601f016020809104026020016040519081016040528092919081815260200182805461093290611342565b801561097f5780601f106109545761010080835404028352916020019161097f565b820191906000526020600020905b81548152906001019060200180831161096257829003601f168201915b5050505050905090565b60046020528060005260406000206000915054906101000a900460ff1681565b6000600160009054906101000a900473ffffffffffffffffffffffffffffffffffffffff16905090565b600280546109e090611342565b80601f0160208091040260200160405190810160405280929190818152602001828054610a0c90611342565b8015610a595780601f10610a2e57610100808354040283529160200191610a59565b820191906000526020600020905b815481529060010190602001808311610a3c57829003601f168201915b505050505081565b6000600660009054906101000a900460ff16905090565b600160009054906101000a900473ffffffffffffffffffffffffffffffffffffffff1681565b60006020528060005260406000206000915090505481565b600160009054906101000a900473ffffffffffffffffffffffffffffffffffffffff1673ffffffffffffffffffffffffffffffffffffffff163373ffffffffffffffffffffffffffffffffffffffff1614610b46576040517f08c379a0000000000000000000000000000000000000000000000000000000008152600401610b3d906113e6565b60405180910390fd5b60008080600090505b600580549050811015610cb45760008060058381548110610b7357610b72611216565b5b9060005260206000200160009054906101000a900473ffffffffffffffffffffffffffffffffffffffff1673ffffffffffffffffffffffffffffffffffffffff1673ffffffffffffffffffffffffffffffffffffffff16815260200190815260200160002054831015610ca15760008060058381548110610bf757610bf6611216565b5b9060005260206000200160009054906101000a900473ffffffffffffffffffffffffffffffffffffffff1673ffffffffffffffffffffffffffffffffffffffff1673ffffffffffffffffffffffffffffffffffffffff16815260200190815260200160002054925060058181548110610c7357610c72611216565b5b9060005260206000200160009054906101000a900473ffffffffffffffffffffffffffffffffffffffff1691505b8080610cac90611274565b915050610b4f565b506000821115610e2b576000600160009054906101000a900473ffffffffffffffffffffffffffffffffffffffff1673ffffffffffffffffffffffffffffffffffffffff166000808473ffffffffffffffffffffffffffffffffffffffff1673ffffffffffffffffffffffffffffffffffffffff16815260200190815260200160002054604051610d4490611195565b60006040518083038185875af1925050503d8060008114610d81576040519150601f19603f3d011682016040523d82523d6000602084013e610d86565b606091505b5050905080610dca576040517f08c379a0000000000000000000000000000000000000000000000000000000008152600401610dc1906111f6565b60405180910390fd5b60008060008473ffffffffffffffffffffffffffffffffffffffff1673ffffffffffffffffffffffffffffffffffffffff168152602001908152602001600020819055506001600660006101000a81548160ff021916908315150217905550505b5050565b600080fd5b600073ffffffffffffffffffffffffffffffffffffffff82169050919050565b6000610e5f82610e34565b9050919050565b610e6f81610e54565b8114610e7a57600080fd5b50565b600081359050610e8c81610e66565b92915050565b600060208284031215610ea857610ea7610e2f565b5b6000610eb684828501610e7d565b91505092915050565b6000819050919050565b610ed281610ebf565b82525050565b6000602082019050610eed6000830184610ec9565b92915050565b610efc81610ebf565b8114610f0757600080fd5b50565b600081359050610f1981610ef3565b92915050565b600060208284031215610f3557610f34610e2f565b5b6000610f4384828501610f0a565b91505092915050565b6000610f5782610e34565b9050919050565b610f6781610f4c565b82525050565b6000602082019050610f826000830184610f5e565b92915050565b60008115159050919050565b610f9d81610f88565b82525050565b6000602082019050610fb86000830184610f94565b92915050565b610fc781610f4c565b8114610fd257600080fd5b50565b600081359050610fe481610fbe565b92915050565b60006020828403121561100057610fff610e2f565b5b600061100e84828501610fd5565b91505092915050565b600081519050919050565b600082825260208201905092915050565b60005b83811015611051578082015181840152602081019050611036565b83811115611060576000848401525b50505050565b6000601f19601f8301169050919050565b600061108282611017565b61108c8185611022565b935061109c818560208601611033565b6110a581611066565b840191505092915050565b600060208201905081810360008301526110ca8184611077565b905092915050565b7f596f752068617665206e6f742070617274696369706174656420696e2041756360008201527f74696f6e20000000000000000000000000000000000000000000000000000000602082015250565b600061112e602583611022565b9150611139826110d2565b604082019050919050565b6000602082019050818103600083015261115d81611121565b9050919050565b600081905092915050565b50565b600061117f600083611164565b915061118a8261116f565b600082019050919050565b60006111a082611172565b9150819050919050565b7f4661696c656420746f2073656e64204574686572000000000000000000000000600082015250565b60006111e0601483611022565b91506111eb826111aa565b602082019050919050565b6000602082019050818103600083015261120f816111d3565b9050919050565b7f4e487b7100000000000000000000000000000000000000000000000000000000600052603260045260246000fd5b7f4e487b7100000000000000000000000000000000000000000000000000000000600052601160045260246000fd5b600061127f82610ebf565b91507fffffffffffffffffffffffffffffffffffffffffffffffffffffffffffffffff8214156112b2576112b1611245565b5b600182019050919050565b60006112c882610ebf565b91506112d383610ebf565b9250827fffffffffffffffffffffffffffffffffffffffffffffffffffffffffffffffff0382111561130857611307611245565b5b828201905092915050565b7f4e487b7100000000000000000000000000000000000000000000000000000000600052602260045260246000fd5b6000600282049050600182168061135a57607f821691505b6020821081141561136e5761136d611313565b5b50919050565b7f4f6e6c792041756374696f6e6565722063616e2053656c6c207468697320497460008201527f656d000000000000000000000000000000000000000000000000000000000000602082015250565b60006113d0602283611022565b91506113db82611374565b604082019050919050565b600060208201905081810360008301526113ff816113c3565b905091905056fea264697066735822122017a357a5ee7eebc5a79114c506d236a0bb7555cca368efd9c465d97b404bf56d64736f6c634300080a0033",
  "immutableReferences": {},
  "source": "pragma solidity >= 0.6.0 < 0.9.0;\r\n\r\ncontract BidEther{\r\n    mapping(address=>uint) public bidders;\r\n    address public  auctioner;\r\n    string public auctionItem;\r\n    uint public highestBidAmount;\r\n    mapping(address=>bool) public bidderAccountFlag;\r\n    \r\n    address[] public bidderAccounts;\r\n\r\n    bool public statusOfItem=false;\r\n    constructor(){\r\n        auctioner=msg.sender;\r\n        auctionItem=\"Kunal's DSA Course\";\r\n    }\r\n    function statusofItem() public view returns(bool){\r\n        return statusOfItem;\r\n    \r\n    }\r\n    modifier onlyowner(){\r\n      require(msg.sender==auctioner,\"Only Auctioneer can Sell this Item\");\r\n      _;\r\n    }\r\n    \r\n    function sellBid()public onlyowner {\r\n         uint  HA=0;\r\n         address Bidder;\r\n         for(uint i=0;i<bidderAccounts.length;i++){\r\n             if(HA<bidders[bidderAccounts[i]]){\r\n                 HA=bidders[bidderAccounts[i]];\r\n                 Bidder=bidderAccounts[i];\r\n             }\r\n         }\r\n        //  msg.sender.transfer(bidders[Bidder]);\r\n        if(HA>0){\r\n        //  payable(auctioner).transfer(bidders[Bidder]);\r\n        //  payable(auctioner).call{2 ether};\r\n        // payable(auctioner).call.value(bidders[Bidder]);\r\n        (bool sent,) = auctioner.call{value:bidders[Bidder]}(\"\");\r\n        require(sent, \"Failed to send Ether\");\r\n        // payable(auctioner).call{value: bidders[Bidder] };\r\n        // msg.sender.call.value(_amount)(\"\");\r\n         bidders[Bidder]=0;\r\n          statusOfItem=true;\r\n        }\r\n\r\n\r\n       \r\n    }\r\n    function Bid() public payable{\r\n        if(bidderAccountFlag[msg.sender]==true){\r\n            bidders[msg.sender]=bidders[msg.sender]+msg.value;\r\n        }else{\r\n            bidderAccountFlag[msg.sender]=true;\r\n            bidders[msg.sender]=msg.value;\r\n            bidderAccounts.push(msg.sender);\r\n        }\r\n        \r\n     }\r\n     \r\n     function auctionerAdd() public view returns(address){\r\n         return auctioner;\r\n     }\r\n     \r\n     function YourBid(address receiverAdd) view public returns(uint){\r\n         return bidders[receiverAdd]; \r\n     }\r\n     \r\n     function auctionItemfun() public view returns(string memory){\r\n         return auctionItem;\r\n     }\r\n     \r\n     function checkHighestAmount()public view returns(uint) {\r\n         uint  HA=0;\r\n         for(uint i=0;i<bidderAccounts.length;i++){\r\n             if(HA<bidders[bidderAccounts[i]]){\r\n                 HA=bidders[bidderAccounts[i]];\r\n             }\r\n         }\r\n         return HA;\r\n         }\r\n         \r\n         function withDraw(address payable receiver)public{\r\n            require(bidders[msg.sender]>0, \"You have not participated in Auction \");\r\n            // payable(msg.sender).transfer(bidders[msg.sender]);\r\n             (bool sent,) = receiver.call{value:bidders[receiver]}(\"\");\r\n             require(sent, \"Failed to send Ether\");\r\n            bidders[msg.sender]=0;\r\n         }    \r\n         \r\n}",
  "sourcePath": "C:\\Users\\mylaptop\\Desktop\\truffleProjects\\BidEth\\contracts\\BidEther.sol",
  "compiler": {
    "name": "solc",
    "version": "0.8.10+commit.fc410830.Emscripten.clang"
  },
  "schemaVersion": "3.4.3",
  "updatedAt": "2021-12-03T07:58:22.317Z",
  "networkType": "ethereum",
  "devdoc": {
    "kind": "dev",
    "methods": {},
    "version": 1
  },
  "userdoc": {
    "kind": "user",
    "methods": {},
    "version": 1
  }
}